:02000002B0004C
:1040000000400B00B6670B00000006000C00050224
:084010000401B41400000000DB
:04401800FC610B003C
:10401C0010F8012B11F8013B012A28BF9A42F7D066
:10402C00D01A7047034613F8012B002AFBD1181A3B
:10403C000138704709480A49884208B505D0094A31
:10404C00824202D0121A01F095FF0748074A00215C
:10405C00121A01F09DFF014808BD00BFA8E503201E
:10406C00BC660B0074E6032074E60320F0E7032023
:10407C0070B5074E074C01F0EDFDA41BA4080025FC
:10408C00AC4200D170BD56F8043B98470135F7E7B8
:10409C0074660B0098660B0000F030B808B500F0A1
:1040AC0035F8BDE8084001F08DBD00F06BBE00F0A6
:1040BC0069BE00F06FBE00F06DBE0078B0FA80F003
:1040CC0040097047012303707047000098B502F156
:1040DC00080323F0070300AFADEB030D144668464D
:1040EC0001F048FF002368460DF8043001F03EFF54
:1040FC00014B1860BD4698BDD8E603200149024823
:10410C0000F0A1BC10620B0074E603207FB51C48C4
:10411C0000F07AF928B31A4800F04DFB194D1A4CEF
:10412C002A68182606FB0242506800F05BFE174B0B
:10413C002A681B68062101FB023302330A2254F859
:10414C0023302B6073436846E15801F09EF8009AC7
:10415C000F490B4800F0D3FA684601F025F804B07B
:10416C0070BD684600F09EFD0099054800F03CFAD1
:10417C00684601F019F80749014800F064FCCDE7E6
:10418C0074E60320D4E60320A8E50320D8E6032038
:10419C0020620B0010620B0007B50021012000F01B
:1041AC0065FD002300930549054B064840F25B7200
:1041BC0000F04EF803B05DF804FB00BF2A620B0060
:1041CC00D9400B0074E6032091F85C3010B504461E
:1041DC00016013B1886D00F041FC204610BD10B594
:1041EC00036893F85C20044612B1986D00F03EFC15
:1041FC00204610BDF8B51F469DF8243004460D46E8
:10420C0016462BB1012380F85C30583000F01EFCB0
:10421C00089B23630023636306B1A66425B129467A
:10422C0004F1380001F01FF8069B2365079BE06939
:10423C00A4F84C70FF2BB8BFFF23A4F8543008B17E
:10424C00FFF737FFB4F85400FFF731FFE061F8BD1A
:10425C002DE9FF4104460025174698460E4601F00D
:10426C0015FB0D49E56104F1380000F0E8FF9DF8FD
:10427C002830A564CDE90283FF220F23CDE900325B
:10428C00204684F85C503B462A463146FFF7B2FF85
:10429C00204604B0BDE8F08170650B0010B50446F3
:1042AC00204601F04FFA0028FAD0204601F034F8ED
:1042BC00C0B210BD2DE9F04705468846FFF7EEFF6A
:1042CC00EB691870EB6993F800A04FF001090AF044
:1042DC00F00A00274C462846FFF7E0FF2646EB691C
:1042EC00985500F07F0313FB09F31F4401340306B8
:1042FC00A4B2BFB24FEAC919EDD4631EBAF1300FA4
:10430C0088F800301ED12846FFF7C8FFEB69185516
:10431C002846FFF7C3FFF41C0236B6B2EB69A4B211
:10432C0098550226B6B2BE420ED22846FFF7B6FF0B
:10433C00B5F85430A34284BFEB6918550134A4B2CC
:10434C000136EFE70026EDE7B5F85430A3422CBF59
:10435C0020460020BDE8F0872DE9F34115461E46A6
:10436C001A4607460023964602A802F07F0CBEF1BF
:10437C007F0F03F10104034488BF4CF0800CBEF1A5
:10438C007F0F4FEAD212E4B203F804CC1ED8C4F16A
:10439C000403C4F10500E954224601A9284405EBA5
:1043AC00030801F0E7FD721C22444146384600F038
:1043BC009EFF054600F072FB621C78623244A8B284
:1043CC00131A5842584102B0BDE8F0812346CAE79F
:1043DC000233F0B5054698B20023CE5C9CB256B1C0
:1043EC00B5F854C0844503F1010704D9441C165494
:1043FC003B46A0B2F1E799B2411A0A44210A02F8ED
:10440C00021C02F8013CF0BD38B5044601F0BCF8C2
:10441C00002814BF0125002502D1204601F0ECF93B
:10442C00284638BD2DE9F04788B00446DDF84080B9
:10443C009DF850A0894617461E46FFF7E5FF054636
:10444C00002840F0CD80214601A8FFF7BDFEA16CED
:10445C00002940F08880B4F84C20A16B2B462046F4
:10446C0001F014F800287AD0012323849DF85430ED
:10447C00E269042B5B4B40F08180186899889B792A
:10448C00ADF80C108DF80E300290C2F805009DF8B6
:10449C000E30BDF80C10A2F80910D3720C23B8F131
:1044AC00000F00F081809DF848009DF844204001E9
:1044BC0040EAC20040F00600C0B2BAF1000F01D1D0
:1044CC0000F0FD001FB1002E70D140F08000E269B9
:1044DC00D054226DE169581C12120A549A1CE169DD
:1044EC00206D88540333E26949462046FFF770FF7C
:1044FC000346B8F1000F0BD0E26941462046FFF7A6
:10450C0067FFE269139903462046FFF761FF0346F4
:10451C0067B1E26939462046FFF75AFF03462EB1D0
:10452C00E26931462046FFF753FF0346053BE2693B
:10453C009BB210212046FFF70FFF00F0AFFAC4E941
:10454C0009004FF47A76204601F0FCF888BB00F0A5
:10455C00A5FAA36AC01A236D73439842F3D9204677
:10456C0001F04AF935E002A800F004FDB4F84C2043
:10457C002B4602A9204601F069F873E7D3F807002F
:10458C00D3F80B10DB7B0DF1080CACE803008CF8B6
:10459C00003002AB03CBC2F80500C2F809109CF83E
:1045AC00003053730E237AE7022086E740F0C000F8
:1045BC008DE702A92046FFF77DFE0428CFD1E369E1
:1045CC00DE78002ECBD100F069FA0125A06284F8C8
:1045DC002C6001A8FFF703FE284608B0BDE8F08761
:1045EC000025F9E7EC610B007FB501230422CDE92E
:1045FC0004320023CDE90233CDE900331A46FFF72C
:10460C0011FF07B05DF804FB2DE9F74FDDF83C8096
:10461C009DF834509DF8389004468B4616461F463C
:10462C00FFF7F2FE8246002851D0214601A8FFF781
:10463C00CBFDB4F85420E069002101F0A9FC05235E
:10464C00E26959462046FFF7C3FE6B1E012B15D8B5
:10465C00218CE369013189B22184090A1954421C65
:10466C00E369218C92B20230995480B2B8F1000FF8
:10467C0004D0238C5A1C2284A8F8003000210B187B
:10468C008F42E2699BB20AD9B4F854C09C4506D952
:10469C0016F801C002F803C0013189B2EFE79DF8AA
:1046AC00301000290CBF30213121B9F1000F01D09D
:1046BC0041F00801022D0ED141F00401053B9BB2E3
:1046CC002046FFF749FE824601A8FFF788FD5046B9
:1046DC0003B0BDE8F08F012D08BF41F00201EDE7FA
:1046EC001FB5089C0394002402949DF81C4001946F
:1046FC009DF818400094FFF787FF04B010BD30B54B
:10470C0087B00446104605910492FFF78BFC0025F8
:10471C000346CDE90155DDE9042100952046FFF75C
:10472C00DFFF07B030BD73B504460E46FFF76CFED5
:10473C000546C8B1214601A8FFF746FDE369622290
:10474C001A70E36902225A70E369320A9A70E369BB
:10475C00DE70E1690422204600F0C9FD051E01A8A7
:10476C0018BF0125FFF73BFD284602B070BD73B59D
:10477C0004460E46FFF748FE0546C8B1214601A87F
:10478C00FFF722FDE36972221A70E36902225A7064
:10479C00E369320A9A70E369DE70E169042220460B
:1047AC0000F0A5FD051E01A818BF0125FFF717FD98
:1047BC00284602B070BD2DE9F04F2DED028B87B06D
:1047CC0000AF0446FFF720FE8146F8B1214607F101
:1047DC001400FFF7F9FC00F061F9236D4FF47A72C5
:1047EC005343A26A821A9A42064603D8626A821A14
:1047FC00934221D294F82C307BB1204600F0FCFF80
:10480C004FF0000907F11400FFF7E9FC48461C378C
:10481C00BD46BDEC028BBDE8F08FE269C021117082
:10482C00E2695370E1690222204600F060FDC4E9A0
:10483C000966012384F82C30204600F083FF002801
:10484C00E0D007F113012046FFF734FD8346002822
:10485C00D8D0E369A662197801F0F002302A7FD132
:10486C00D4F830A0BAF1000FCCD097F813C06A4638
:10487C0008EE102A03EB0C025178957805EB012514
:10488C00ADB205F108026946D208A1EBC202954609
:10489C000CF10302FA6003EB020E0DEB0502684605
:1048AC00C7F808D07A60D7E901218A4206D00A46B7
:1048BC001EF8018B02F8018BBA60F4E70022425516
:1048CC0093F80080F96808F00608ABEB0C02033A89
:1048DC00B8F1020FA2EB0502294425D113F801E02F
:1048EC001944023A91F801B00CF10501294419441C
:1048FC000BEB0E2BD047E36940221A70E3691FFAC9
:10490C008BFB83F80180E3694FEA1B229A70E36901
:10491C0083F803B0E1690422204600F0E8FC6662EB
:10492C0018EE103A9D466DE7B8F1040F15D113F847
:10493C0001E01944023A91F801B00CF10501294447
:10494C0019440BEB0E2BD047E36950221A70E36924
:10495C0002221FFA8BFB5A70D5E71944D047DFE7C8
:10496C00502A08D19A78D97801EB022189B22046D5
:10497C00FFF7D9FE46E7402A12D1626B002A3FF4BA
:10498C0041AFBBF1040F7FF43DAF11F0060F7FF484
:10499C0039AF9978D87800EB012080B2904731E795
:1049AC00602A08D19A78D97801EB022189B2204685
:1049BC00FFF7DDFE26E7702ADFD0902A3FF422AF06
:1049CC00C02A0AD1D0221A70E36900225A70E16918
:1049DC000222204600F08BFC14E7D02A04BF0023EF
:1049EC0084F82C300EE7F7B504460F461646FFF751
:1049FC000BFD054610B3214601A8FFF7E5FB238C00
:104A0C0001339BB2EBB12384238CE2691B0A5371F3
:104A1C00E369228C9A71E269072339462046FFF735
:104A2C00D7FCE3691E54043883B2E2698221204624
:104A3C00FFF792FC054601A8FFF7D1FB284603B00F
:104A4C00F0BD0123DFE70022FFF7CDBF08B5024B15
:104A5C001B681B6B019308BD4802030008B5024B91
:104A6C001B689B6B019308BD4802030008B5024B01
:104A7C001B681B6C019308BD4802030008B5024B70
:104A8C001B685B6C019308BD4802030008B5024B20
:104A9C001B685B68019308BD1802030008B5024B44
:104AAC001B685B69019308BD1802030008B5024B33
:104ABC001B685B69019308BD6C02030008B5024BCF
:104ACC001B685B69019308BD6402030008B5024BC7
:104ADC001B681B6A019308BD6402030008B5024BF6
:104AEC001B689B6A019308BD6402030008B5024B66
:104AFC001B689B68019308BD6802030008B5024B54
:104B0C001B68DB68019308BD6802030008B5024B03
:104B1C001B689B69019308BD3802030008B5024B62
:104B2C001B68DB69019308BD3802030008B5024B12
:104B3C001B681B6A019308BD3802030008B5024BC1
:104B4C001B689B6A019308BD3802030008B5024B31
:104B5C001B681B6B019308BD3802030008B5024BA0
:104B6C001B689B6B019308BD3802030008B5024B10
:104B7C001B68DB68019308BD3C02030008B5024BBF
:104B8C001B681B69019308BD3C02030008B5024B6E
:104B9C001B685B69019308BD3C02030008B5024B1E
:104BAC001B689B69019308BD3C02030008B5024BCE
:104BBC001B68DB69019308BD3C02030008B5024B7E
:104BCC001B689B6A019308BD3C02030008B5024BAD
:104BDC001B681B6C019308BD3C02030008B5024B1B
:104BEC001B681B68019308BD4C02030008B5024BFF
:104BFC001B681B69019308BD4C02030008B5024BEE
:104C0C001B685B69019308BD4C02030008B5024B9D
:104C1C001B689B69019308BD4C02030008B5024B4D
:104C2C001B68DB69019308BD4C02030008B5024BFD
:104C3C001B681B6A019308BD4C02030008B5024BAC
:104C4C001B681B6D019308BD6002030008B5024B85
:104C5C001B685B68019308BD2002030008B5024B7A
:104C6C001B685B69019308BD2002030008B5024B69
:104C7C001B68DB6A019308BD2002030008B5034BD7
:104C8C001B68D3F88830019308BD00002002030094
:104C9C0008B5034B1B68D3F89430019308BD000092
:104CAC002002030008B5024B1B68DB69019308BDA9
:104CBC004402030008B5024B1B68DB6B019308BD73
:104CCC004402030008B5024B1B685B68019308BDE6
:104CDC004002030008B5024B1B689B68019308BD9A
:104CEC004002030008B5024B1B68DB68019308BD4A
:104CFC004002030008B5024B1B681B69019308BDF9
:104D0C004002030008B5024B1B685B69019308BDA8
:104D1C004002030008B5024B1B689B69019308BD58
:104D2C004002030008B5024B1B68DB69019308BD08
:104D3C004002030008B5024B1B681B6A019308BDB7
:104D4C004002030008B5024B1B681B6B019308BDA6
:104D5C004002030008B5024B1B685B6B019308BD56
:104D6C004002030008B5024B1B681B6C019308BD85
:104D7C004002030008B5024B1B685B6C019308BD35
:104D8C004002030008B5024B1B681B68019308BD69
:104D9C001C02030008B5024B1B685B68019308BD3D
:104DAC001C02030008B5024B1B689B68019308BDED
:104DBC001C02030008B5024B1B68DB6B019308BD9A
:104DCC001C02030008B5024B1B681B6C019308BD49
:104DDC001C02030008B5024B1B685B6C019308BDF9
:104DEC001C0203000021FFF739BF0000024800231A
:104DFC000360FFF743BE00BFDCE6032000224068DF
:104E0C001146FFF797BF002240681146FFF7A2BF7B
:104E1C0040680022FFF796BF4068002281F0010134
:104E2C00FFF780BF002340681A461946FFF772BF90
:104E3C00002340681A461946FFF764BF00224068F9
:104E4C001146FFF757BF002240681146FFF742BFDB
:104E5C00406800220221FFF745BF002340681A4634
:104E6C00FFF730BF024B03225A60024A1A607047A8
:104E7C00E0E603204C620B00704710B51821044685
:104E8C00FFF719F9204610BDF0B5037D062B8DB048
:104E9C000E4600F104074FF0000412D000F1080593
:104EAC0015F8011D0A22304600F059F9AF420444AE
:104EBC0019D0002CF4D02E21304600F04DF90444CA
:104ECC00EEE72F236A4639460A208DF80040FFF79B
:104EDC00F5FD6846FFF7A6F833680246DB686946BD
:104EEC0030469847044620460DB0F0BD10B5054B32
:104EFC000446112240F8043B002101F049F82046F9
:104F0C0010BD00BF88620B000346074A10B543F87A
:104F1C00042B01F1100251F8044B43F8044B91425D
:104F2C00F9D10A781A7010BD88620B00037D042B2E
:104F3C0004D14068003818BF01207047062B07D1F8
:104F4C0043683BB983682BB9C3681BB90069F1E7A7
:104F5C00002070470120704710B59DF8084044EAC6
:104F6C00032343EA024242EA0161042341600375D0
:104F7C0010BD000007B5064B0360CB7800938B780F
:104F8C004A780978FFF7E8FF03B05DF804FB00BF2F
:104F9C0088620B00014B024A1A607047E8E6032056
:104FAC0094620B00002340681A46FFF78BBE4068E2
:104FBC0000220221FFF796BE002240681146FFF73F
:104FCC0089BE002240681146FFF794BE002340685A
:104FDC001A461946FFF796BE002340681A46194632
:104FEC00FFF798BE40680021FFF7BCBE4068002167
:104FFC00FFF7C0BE4068002281F00101FFF792BEAE
:10500C0040680022FFF79EBE002240681146FFF761
:10501C00A1BE002240681146FFF78CBE2DE9F0437B
:10502C0095B014460D460746FFF760FF00211C2281
:10503C000DA8009100F0ACFF40230C9320466B466A
:10504C000CAA0021FFF75AFD044600284BD102465A
:10505C0001216868FFF74EFE0221804622466868EF
:10506C00FFF748FE009E81462146002E3BD00029CA
:10507C0039D17368022B03D00A2B11D0F669F4E7EF
:10508C00B8F1000FFAD0716906A8043107ADFFF72B
:10509C0071FF0FCD3C1D0FC42B6823704146EDE70B
:1050AC00B9F1000FEAD07469102201A800F070FF6A
:1050BC0006238DF8143001AD04F108031834186878
:1050CC0059682A4603C20833A3421546F7D101A9F1
:1050DC0006A807ADFFF718FF0FCD3C1D0FC42B68BA
:1050EC0023704946CAE70098FFF700FD384615B013
:1050FC00BDE8F083024B034A1A6000225A607047E5
:10510C00ECE60320A0620B00F8B506460D468F189E
:10511C000024BD420CD0336815F8011B9B68304647
:10512C009847031E01DB1C44F3E7002C08BF1C4608
:10513C002046F8BD13B50446084659B10191FEF757
:10514C0071FF23680199DB680246204602B0BDE876
:10515C001040184702B010BD03689B68184730B563
:10516C008BB00023012A8DF8243098BF0A2209AC99
:10517C000D46B1FBF2F101FB125303F0FF03092BB7
:10518C0094BF30333733DBB2AA4204F8013DEFD978
:10519C002146FFF7CFFF0BB030BD0000014B0022C2
:1051AC009A607047F4E6032010B504460068FFF7D8
:1051BC00F1FD204610BD10B50446006808B1FFF79C
:1051CC00E9FD0023C4E90133236010BD38B5044662
:1051DC000D4600680131FFF7E5FD10B1C4E900058B
:1051EC00012038BD10B50368044623B143688B42D7
:1051FC0001D3012010BD2046FFF7E8FF0028F9D0AD
:10520C00A368002BF5D122681370F2E737B50D4671
:10521C00114601920446FFF7E5FF019A28B9204692
:10522C00FFF7C9FF204603B030BDA26029462068B5
:10523C0000F0A0FE2268A3680021D154F2E70023FD
:10524C0013B5C0E9003304468360037341B10846CB
:10525C000191FEF7E7FE019902462046FFF7D6FFC3
:10526C00204602B010BD13B5044659B10846019151
:10527C00FEF7D8FE019902462046FFF7C7FF2046ED
:10528C0002B010BDFFF797FFF9E710B504468AB0DE
:10529C000023C4E90033A3602373084601A900F07E
:1052AC0059FC01A92046FFF7DEFF20460AB010BDCD
:1052BC00054B02221A60054B054A9A600020C3E98F
:1052CC000000FFF7C3BC00BF10E7032004E7032076
:1052DC000000FFFF13B503688DF80710DC6B01228B
:1052EC004FF0FF330DF10701A04702B010BD10B411
:1052FC000368DC6B4FF0FF33A4465DF8044B60474A
:10530C0013B5134602688DF80710D46B0DF1070125
:10531C000122A04702B010BD10B54369B3F8862036
:10532C00B3F884309A42044608D06369B3F88420F9
:10533C00511CA3F884101344187910BD03681B6921
:10534C0098470028F1D14FF0FF30F6E770474369DA
:10535C001868C043C00F704770470000064B994255
:10536C0010B500F10C0405D0084600F0E7FC00284D
:10537C0008BF0024204610BD3C620B0010B5AC21C8
:10538C000446FEF798FE204610BDAC21FEF793BEF6
:10539C002DE9F0414FF0000886B01C46C0F804809F
:1053AC0005460E4617464146102202A800F0F0FDB5
:1053BC00631C09D04FF47A73B4FBF3F203FB124471
:1053CC00CDE902285C4304946869102300930068BB
:1053DC0002AB41F2050240F6FF71FFF797FB002884
:1053EC0007DAFFF7E7FC03686B60002006B0BDE846
:1053FC00F0816869002300683A463146FFF7A6FB46
:10540C00031EEEDB1846F1E738B584690A4B0360DE
:10541C0005467CB16368013B63605BB92368204639
:10542C009B689847A368013BA3601BB9236820467F
:10543C00DB689847284638BD10630B0010B504464E
:10544C00FFF7E2FF20461C21FEF735FE204610BD7B
:10545C0030B587B0044601AD6846FFF78BFD0FCD24
:10546C0004340FC42B68237007B030BD70B54D6980
:10547C00054B04468C3544F8043B06460FCD0FC44F
:10548C002B682370304670BD88620B002DE9F04309
:10549C009846036893B00D460024DB6A064617460F
:1054AC00984728466B46224621460094FFF726FB78
:1054BC000546002863D1009B002B4BD05B69002B69
:1054CC0048D006A8FFF712FD009B5C696378022B9D
:1054DC0004D1211D06A8FFF7BBFF26E00A2B24D11F
:1054EC001122294601A800F053FDA368002B38D0E7
:1054FC0004F108030DF1040C18341868596862465D
:10550C0003C20833A3429446F7D1062301A90CA881
:10551C008DF81430FFF7F8FC0DF1340CBCE80F00DB
:10552C0007AC0FC4DCF80030237006A8FFF7FEFCB4
:10553C0080B1336807ADD3F82090124B0C930FCD8C
:10554C000DAC0FC42B6823703A4643460CA9304669
:10555C00C84705460098FFF7C9FA284613B0BDE8BE
:10556C00F083E368002BC3D14FF6FF70D4F8109092
:10557C00FFF7ACFA8145BBD104F11401AAE725462B
:10558C00E8E700BF88620B0038B543691A68002A47
:10559C00054610DAB3F88620B3F884309A420AD163
:1055AC0003681B699847044628B92B682846DB6AB0
:1055BC009847204638BD0120FCE710B54369B3F885
:1055CC008620B3F884309A42044605D06369B3F858
:1055DC0084201344187910BD03681B699847002870
:1055EC00F4D14FF0FF30F6E7F8B543691746B3F83E
:1055FC008620B3F884309A4205460E4616D0696967
:10560C00B1F88430B1F88640E41ABC4228BF3C465D
:10561C00043322461944304600F0ACFC6A69B2F8F7
:10562C0084302344A2F884302046F8BD03681B69FB
:10563C0098470028E3D14FF0FF34F5E74269002387
:10564C00A2F884304269A2F8863070472DE9F04107
:10565C001F4603680C46DB6A8AB005461646984717
:10566C00237DD5F81480042B0CBF02200A200622BF
:10567C000121FFF773FAC8F800006B691B68002B57
:10568C0008DA2B682846DB6A0024984720460AB0C3
:10569C00BDE8F0812846FFF7D1FFB7B1002303A97D
:1056AC00F8B20393ADF81030FFF700FA0028E8D1F8
:1056BC00686906230093006803AB41F20B0240F6C5
:1056CC00FF71FFF723FA0028DBD11C22002103A86D
:1056DC0000F05EFC237D042B1DD14FF40773304684
:1056EC00ADF80C30FFF7FAF9ADF80E006068FFF773
:1056FC00EDF904906B691C22186803A9FFF716FAE0
:10570C000028BED104340FCC6D698C350FC52368CD
:10571C002B700124BAE740F61C233046ADF80C3050
:10572C00FFF7DCF905AEADF80E00231D04F11407EC
:10573C0018685968324603C20833BB421646F7D183
:10574C00D8E7000030B54269B2F886308BB0044619
:10575C002BB1B2F884209A4201D1FFF76FFF616937
:10576C000868002818DBB1F886507F2D14D8043156
:10577C000823C5F180022944FFF7E0F9002813DD66
:10578C006369B3F886200AB9A3F884206369B3F877
:10579C0086201044A3F886006369B3F88600B3F83A
:1057AC008430C01A0BB030BDFFF704FB03680B2B21
:1057BC00F2D0FFF7FFFA03680B2BEDD02023002566
:1057CC00CDE90235FFF7F6FA03680193084B094956
:1057DC00009302AA2B463220FFF730FA636918684F
:1057EC00FFF79CF963694FF0FF321A60D4E700BFF2
:1057FC00DB620B00D4620B0010B5436904461868D9
:10580C00002801DBFFF78AF963694FF0FF321A6059
:10581C006069112200218C3000F0BAFB2046BDE8F3
:10582C001040FFF70BBF10B5002304460160C0F811
:10583C0084308830FFF75AFB204610BD73B5002327
:10584C004FF47A72C0E901320E4A0361026043617F
:10585C000446AC200191FEF728FC051E05F10C0650
:10586C0008D00123C5E90133074B01992B60304661
:10587C00FFF7D9FF2046C4E90565FFF7DFFE02B04C
:10588C0070BD00BF10630B00F4620B0010B54FF03D
:10589C00FF310446FFF7D2FF204610BD10B5044679
:1058AC000068002801DBFFF739F9204610BD0C30E9
:1058BC00FFF7F4BF024B1A68024B1A60704700BF27
:1058CC0008E6032014E7032070474174704708B5BD
:1058DC00007CFFF773F920EAE07008BD08B5007C86
:1058EC00FFF74CF920EAE07008BD08B5007CFFF723
:1058FC0055F940EAE07008BD08B5007CFFF746F9A1
:10590C0040EAE07008BD007CFFF750B937B5457C24
:10591C0004462DB1207C03B0BDE83040FFF726B91A
:10592C00007C0191FFF74AF900280199F2DC284626
:10593C0003B030BD10B514210446FEF7BCFB204665
:10594C0010BD000010B54FF47A730446084611469A
:10595C000022C4E90123044B2360012320746374E7
:10596C00FFF734F9204610BD78630B004174704783
:10597C007047704708B50021007CFFF747F940EAF3
:10598C00E07008BD08B50121007CFFF73FF940EA43
:10599C00E07008BD08B5007CFFF730F920EAE07034
:1059AC0008BD08B5007CFFF721F920EAE07008BDBE
:1059BC0013B50446007C0191FFF720F900280199EA
:1059CC0001DC607C20B1207CFFF728F920EAE07034
:1059DC0002B010BD007CFFF729B910B514210446A4
:1059EC00FEF769FB204610BD10B54FF47A730446E0
:1059FC0008460021C4E90113044B236001232074E1
:105A0C0063741146FFF7EAF8204610BDA8630B003B
:105A1C0010B514220446002100F0BAFA204610BD3D
:105A2C0010B50F4C88B003A8FFF7F2FF2178BFF335
:105A3C005B8F11F001010FD120460191FEF73DFB68
:105A4C00019948B103AA0748FFF7CEFF2046FEF79D
:105A5C0039FB054800F084FA024808B010BD00BFBD
:105A6C0018E703201CE703207D590B000022406837
:105A7C001146FFF73FB9002240681146FFF75AB9AB
:105A8C00002240681146FFF765B940680022FFF715
:105A9C0059B94068002281F00101FFF743B9002396
:105AAC0040681A461946FFF735B9002340681A4674
:105ABC001946FFF727B9002240681146FFF70AB9CB
:105ACC00406800220221FFF70DB9002340681A46F6
:105ADC00FFF7F8B8024B04225A60024A1A6070476A
:105AEC0030E70320D8630B0010B50446FEF79AFA92
:105AFC00013823182046834206D90278197800F819
:105B0C00011B03F80129F6E710BD70B50C46911E78
:105B1C0022291DD8254630B9234430229D4210D26B
:105B2C0005F8012BFAE7B0FBF2F602FB1600C1B246
:105B3C00092894BF30315731C9B205F8011B3046E2
:105B4C00E9E7002320462B70FFF7CEFF204670BDFF
:105B5C000020FCE738B5031E0C4615460EDAB3F1EF
:105B6C00004F4FF02D0214BF5842184601230A7003
:105B7C002A461944FFF7C9FF204638BD0123F9E72F
:105B8C00014B1860704700BF0CE6032008B50B4BA7
:105B9C0043B1FFF745FF03681B699847002801DDF7
:105BAC00AFF30080064B43B100F0A2F803681B6909
:105BBC009847002801DDAFF3008008BD000000000D
:105BCC000000000008B5FFF7E1FFFEF767FF014B8F
:105BDC00186008BD40E703200548064A064908B589
:105BEC00121A00F0C7F9054B054A1A6008BD00BF30
:105BFC0000F4032004F4032088670B0000F4032056
:105C0C001E1C279A07B5002300931A466FF07701E4
:105C1C00FFF73EF803B05DF804FB000007B54388BE
:105C2C000A2B08D0502B0BD1094B1B684BB103B07E
:105C3C005DF804EB1847FFF7E5FF03B05DF804FBD4
:105C4C00002300931A466FF07701FFF721F8F4E771
:105C5C003CE7032010B512480021FFF7BBF8114BAD
:105C6C001A68114B9A42114B0CBF012200221A7078
:105C7C0001D0FFF7B1FFFEF709FF044600F090F9E1
:105C8C000B4B13B12046AFF3008000210848FFF7FF
:105C9C0011F8BDE8104007480021FEF7EFBF00BF28
:105CAC008D5B0B0000F403201E1C279A38E70320A1
:105CBC0000000000295C0B007047000038B504465A
:105CCC0014252A46002100F063F925804025074958
:105CDC0025812846258200F02FF80449606028466B
:105CEC0000F02AF8E060204638BD00BF0C640B00C1
:105CFC0030B50E4D2978BFF35B8F11F0010487B0DE
:105D0C0011D12846FEF7D9F968B101A8FFF7D6FFE3
:105D1C0001AA21460648FFF715FE2846FEF7D2F9E0
:105D2C00044800F01DF9024807B030BD44E70320D9
:105D3C0048E70320C55C0B00FEF7B9B9014900F038
:105D4C00F9B800BF28640B007FB500241023CDE9FF
:105D5C000234036815469E6912686B46CDE900440F
:105D6C00B0479DF8043003F00603062B03BF009BDD
:105D7C002B600120204604B070BD0098904214BFE7
:105D8C00012006207047000010B5034B0360044649
:105D9C0000F0CDF8204610BD68640B0010B5044629
:105DAC00FFF7F2FF20460821FEF785F9204610BDCB
:105DBC002DE9F0411F46DDE90834DDF818809845DF
:105DCC000646154607D1079900F0B4F818B165716D
:105DDC000020BDE8F0813946304600F0ABF80028D1
:105DEC00F6D00123C4F800802571A371F0E738B513
:105DFC0015461C4600F09EF820B10823E3600623EC
:105E0C002560237138BD73B505460C4601921E46BC
:105E1C0000F090F850B9032E08D82368019A5B69FA
:105E2C002946204602B0BDE87040184702B070BD4C
:105E3C0010B5034B03600446FFF7A6FF204610BDC8
:105E4C00C8640B0010B50446FFF7F2FF20460C2186
:105E5C00FEF731F9204610BDF7B5089F974205466D
:105E6C000E4614460AD0A86802680897156A31468F
:105E7C002246AC4603B0BDE8F0406047194601939A
:105E8C0000F058F8019B0028EDD0062003B0F0BDBF
:105E9C002DE9F14F0D461946DDE90A4BDDE90CA65B
:105EAC0081461746984600F045F890B1002D3460B5
:105EBC00377109DB61198A450CBF06210121B171CB
:105ECC00002001B0BDE8F08F0235F9D10123B37188
:105EDC00F6E7544506D15946484600F02BF808B170
:105EEC007771EDE7D9F808000368CDE90CA6CDE988
:105EFC000A4BDC693A4643462946A44601B0BDE844
:105F0C00F04F60472DE9F04107460C4615461E46FA
:105F1C00FFF76DFF48B9B86803689F692A46334696
:105F2C002146BC46BDE8F0416047BDE8F0817047B2
:105F3C0000207047814208B50ED0406803782A2BA8
:105F4C000CD049680B782A2B08BF0131FEF760F89A
:105F5C00B0FA80F0400908BD0120FCE70020FAE708
:105F6C00002301461A46184600F0D4B80A22002134
:105F7C0000F0C6B80A44914200F1FF3300D17047DB
:105F8C0010B511F8014B03F8014F9142F9D110BD36
:105F9C0002440346934200D1704703F8011BF9E712
:105FAC0038B5104B1D68AB6B0446B3B91820FEF71F
:105FBC00E9FE0246A86320B90B4B0C484221FEF7C0
:105FCC0001FF0B490B4BC0E900130B4B83600B23F8
:105FDC00838100210120C2E90401AB6B00221C610A
:105FEC005A6138BD0CE6032001650B0018650B00E7
:105FFC000E33CDAB34126DE6ECDE0500012B2DE932
:10600C00F04701D0242B06D9FEF7D4FE16230360EB
:10601C000020BDE8F087DFF8E4C00D462E4615F8E9
:10602C00014B14F80C7017F00807F7D12D2C32D156
:10603C002C780127B51C002B5BD0102B09D1302CF0
:10604C0007D12C7804F0DF04582C4DD16C78102338
:10605C00023507F1004808F1FF384FF0000CB8FB8F
:10606C00F3F9664603FB198AA4F1300EBEF1090F51
:10607C0016D87446A34224DDBCF1000F1EDBB145DB
:10608C001CD301D1A24519DB06FB03464FF0010CD2
:10609C0015F8014BE8E72B2C04BF2C78B51CCAE78C
:1060AC00A4F1410EBEF1190F01D8373CE2E7A4F17F
:1060BC00610EBEF1190F04D8573CDBE74FF0FF3CE3
:1060CC00E6E7BCF1000F05DA22230360464642B92D
:1060DC0030469EE707B17642002AF9D0BCF1000F9A
:1060EC0000D0691E1160F3E73024002BB1D10823D6
:1060FC00AFE7302CA5D00A23ABE700BF72650B00CD
:10610C0013460A46014602480068FFF777BF00BFF6
:10611C000CE603202DE9F843DFF8B8800646D8F8E2
:10612C0000001F460D46914600F056F8254B1C68A2
:10613C0034B9254C1C60254B13B11B68C4F888304E
:10614C0063681F2B07DDD8F8000000F047F84FF00C
:10615C00FF30BDE8F8834EB3D4F8880088B91C4BE7
:10616C0023B9D8F8000000F038F8F0E74FF4847049
:10617C00FEF708FE0028F4D00023C0E94033C4F831
:10618C008800636840F8239001229A4000EB830159
:10619C00D0F800311343C0F80031022EC1F88070E2
:1061AC0002BFD0F804311343C0F804316368D8F847
:1061BC0000005A1C0233626044F8235000F00EF8C1
:1061CC000020C6E7E8E703205CE70320000000009E
:1061DC00914D0B0070E6032070477047704700002C
:1061EC0000044D5154540400064D5149736470031E
:1061FC0041400B007D400B00A5400B00A9400B005B
:10620C000000000046534D66656E746F6E4F7574DA
:10621C007075740046534D66656E746F6E006C61DC
:10622C00622E74686577636C2E636F6D00000000DE
:10623C000000000000000000000000000000000052
:10624C00674E0B005D4E0B00534E0B00494E0B007E
:10625C003D4E0B00314E0B00F14F0B00F94F0B0074
:10626C00254E0B001D4E0B00134E0B00094E0B0060
:10627C0029500B000000000000000000954E0B00A0
:10628C00854E0B00874E0B00617070000000000003
:10629C0000000000B14F0B00BB4F0B00C54F0B00B3
:1062AC00CF4F0B00D94F0B00E54F0B00F14F0B00FC
:1062BC00F94F0B0001500B000D500B0015500B004B
:1062CC001F500B0029500B00776972696E670072C2
:1062DC00656376206572726F72203D202564000024
:1062EC00000000000000000065530B0089530B00F8
:1062FC00BB580B0097530B0069530B0000000000B8
:10630C000000000015540B0049540B00E1520B0027
:10631C00FB520B0051570B0025530B00C7550B00BC
:10632C0059530B0059560B0099540B00F5550B00A3
:10633C0005580B0095550B005B530B000D530B00D0
:10634C009D530B0079540B0025592D256D2D25647B
:10635C005425483A254D3A2553257A0061736374C8
:10636C00696D65000000000000000000D5580B00AE
:10637C0041590B0019590B0015510B00E9580B0032
:10638C0005590B00F7580B0013590B00D7580B008D
:10639C00DB580B0000000000000000007F590B00D0
:1063AC00E7590B00BD590B0015510B00AF590B00F1
:1063BC0081590B0091590B00E1590B00A1590B00AD
:1063CC0079590B000000000000000000D75A0B00A8
:1063DC00CD5A0B00C35A0B00795A0B00B75A0B005D
:1063EC00AB5A0B00F14F0B00F94F0B009F5A0B00EF
:1063FC00975A0B008D5A0B00835A0B0029500B0037
:10640C0000537431395F53705F6D616B655F7368F6
:10641C00617265645F7461670000000068640B0062
:10642C000D640B00C8640B003C640B00EC640B00A7
:10643C004E31305F5F637878616269763131375FF6
:10644C005F636C6173735F747970655F696E666F9F
:10645C00450000000000000030640B00955D0B004F
:10646C00A95D0B003D5F0B003D5F0B00135E0B0045
:10647C00555D0B00FB5D0B00BD5D0B00875D0B00DC
:10648C00C8640B0098640B0030640B004E31305F15
:10649C005F637878616269763132305F5F73695F10
:1064AC00636C6173735F747970655F696E666F4559
:1064BC0000000000000000008C640B003D5E0B002F
:1064CC00515E0B003D5F0B003D5F0B00135E0B003C
:1064DC00555D0B00115F0B009D5E0B00655E0B00A4
:1064EC0068640B00F4640B00537439747970655F45
:1064FC00696E666F005245454E54206D616C6C6F31
:10650C006320737563636565646564002F746D70D7
:10651C002F6A656E6B696E732D4743432D31302D99
:10652C00706970656C696E652D34385F323032304D
:10653C00313132345F313630363138303633392FF1
:10654C007372632F6E65776C69622F6E65776C69F9
:10655C00622F6C6962632F7374646C69622F726151
:10656C006E642E6300002020202020202020202874
:10657C0028282828202020202020202020202020EF
:10658C002020202020208810101010101010101027
:10659C001010101010100404040404040404040467
:1065AC0010101010101010414141414141010101E6
:1065BC0001010101010101010101010101010101BF
:1065CC0001101010101010424242424242020202CC
:1065DC00020202020202020202020202020202028F
:1065EC00021010101020000000000000000000003D
:1065FC00000000000000000000000000000000008F
:10660C00000000000000000000000000000000007E
:10661C00000000000000000000000000000000006E
:10662C00000000000000000000000000000000005E
:10663C00000000000000000000000000000000004E
:10664C00000000000000000000000000000000003E
:10665C00000000000000000000000000000000002E
:10666C000000000000000000A5410B00F94D0B00DC
:10667C00714E0B00A14F0B0001510B00A9510B00E7
:0C668C00BD520B00C1580B00E15A0B007E
:10669800040000001400000003000000474E5500ED
:1066A8005C33E80E4C9769DB4B128293D0ED2D4199
:0466B800E3BD8D1A97
:1066BC000000000088130000000000000100000032
:1066CC000000000001000000010000008813000021
:1066DC0002000000020000000200000002000000A6
:1066EC0002000000881300000200000002000000FD
:1066FC0003000000030000000300000088130000EA
:10670C00000000000000000000000000000000007D
:10671C0068630B0010E6032000000000000000007E
:10672C00000000000000000000000000000000005D
:10673C00000000000000000000000000000000004D
:10674C00000000000000000000000000000000003D
:10675C00000000000000000000000000000000002D
:10676C00000000000000000000000000000000001D
:0C677C000000000000000000ECE703201B
:04678800000000000D
:1067920000000102030405060708090A0B0C0D0E8E
:1067A2000F101112131415161718191A1B1C1D1E7F
:0467B2001F2028007C
:0467B60078563412CB
:04000003B000401CED
:00000001FF
